{
  "contractName": "Election",
  "abi": [
    {
      "constant": true,
      "inputs": [],
      "name": "candidatesCount",
      "outputs": [
        {
          "name": "",
          "type": "uint256"
        }
      ],
      "payable": false,
      "stateMutability": "view",
      "type": "function"
    },
    {
      "constant": true,
      "inputs": [
        {
          "name": "",
          "type": "uint256"
        }
      ],
      "name": "candidates",
      "outputs": [
        {
          "name": "id",
          "type": "uint256"
        },
        {
          "name": "name",
          "type": "string"
        },
        {
          "name": "voteCount",
          "type": "uint256"
        }
      ],
      "payable": false,
      "stateMutability": "view",
      "type": "function"
    },
    {
      "constant": true,
      "inputs": [
        {
          "name": "",
          "type": "address"
        }
      ],
      "name": "voters",
      "outputs": [
        {
          "name": "",
          "type": "bool"
        }
      ],
      "payable": false,
      "stateMutability": "view",
      "type": "function"
    },
    {
      "inputs": [],
      "payable": false,
      "stateMutability": "nonpayable",
      "type": "constructor"
    },
    {
      "anonymous": false,
      "inputs": [
        {
          "indexed": true,
          "name": "_candidateId",
          "type": "uint256"
        }
      ],
      "name": "votedEvent",
      "type": "event"
    },
    {
      "constant": false,
      "inputs": [
        {
          "name": "_candidateId",
          "type": "uint256"
        }
      ],
      "name": "vote",
      "outputs": [],
      "payable": false,
      "stateMutability": "nonpayable",
      "type": "function"
    }
  ],
  "bytecode": "0x608060405234801561001057600080fd5b5061005e6040805190810160405280600a81526020017f4d61726b205275747465000000000000000000000000000000000000000000008152506100b0640100000000026401000000009004565b6100ab6040805190810160405280600c81526020017f446f6e616c64205472756d7000000000000000000000000000000000000000008152506100b0640100000000026401000000009004565b6101d2565b6002600081548092919060010191905055506060604051908101604052806002548152602001828152602001600081525060016000600254815260200190815260200160002060008201518160000155602082015181600101908051906020019061011c92919061012d565b506040820151816002015590505050565b828054600181600116156101000203166002900490600052602060002090601f016020900481019282601f1061016e57805160ff191683800117855561019c565b8280016001018555821561019c579182015b8281111561019b578251825591602001919060010190610180565b5b5090506101a991906101ad565b5090565b6101cf91905b808211156101cb5760008160009055506001016101b3565b5090565b90565b610404806101e16000396000f300608060405260043610610062576000357c0100000000000000000000000000000000000000000000000000000000900463ffffffff1680630121b93f146100675780632d35a8a2146100945780633477ee2e146100bf578063a3ec138d14610173575b600080fd5b34801561007357600080fd5b50610092600480360381019080803590602001909291905050506101ce565b005b3480156100a057600080fd5b506100a96102f0565b6040518082815260200191505060405180910390f35b3480156100cb57600080fd5b506100ea600480360381019080803590602001909291905050506102f6565b6040518084815260200180602001838152602001828103825284818151815260200191508051906020019080838360005b8381101561013657808201518184015260208101905061011b565b50505050905090810190601f1680156101635780820380516001836020036101000a031916815260200191505b5094505050505060405180910390f35b34801561017f57600080fd5b506101b4600480360381019080803573ffffffffffffffffffffffffffffffffffffffff1690602001909291905050506103b8565b604051808215151515815260200191505060405180910390f35b6000803373ffffffffffffffffffffffffffffffffffffffff1673ffffffffffffffffffffffffffffffffffffffff16815260200190815260200160002060009054906101000a900460ff1615151561022657600080fd5b60008111801561023857506002548111155b151561024357600080fd5b60016000803373ffffffffffffffffffffffffffffffffffffffff1673ffffffffffffffffffffffffffffffffffffffff16815260200190815260200160002060006101000a81548160ff0219169083151502179055506001600082815260200190815260200160002060020160008154809291906001019190505550807ffff3c900d938d21d0990d786e819f29b8d05c1ef587b462b939609625b684b1660405160405180910390a250565b60025481565b6001602052806000526040600020600091509050806000015490806001018054600181600116156101000203166002900480601f0160208091040260200160405190810160405280929190818152602001828054600181600116156101000203166002900480156103a85780601f1061037d576101008083540402835291602001916103a8565b820191906000526020600020905b81548152906001019060200180831161038b57829003601f168201915b5050505050908060020154905083565b60006020528060005260406000206000915054906101000a900460ff16815600a165627a7a7230582035bdcc05a6f53edeafcfd2838f0daae3fc0e69fb42b24885c4b874b9d1066e0f0029",
  "source": "pragma solidity ^0.4.2;\r\n\r\ncontract Election{\r\n\t// Model candidates\r\n\tstruct Candidate{\r\n\t\tuint id;\r\n\t\tstring name;\r\n\t\tuint voteCount;\r\n\t}\r\n\r\n\t// store accounts that have voted\r\n\t// address = account key\r\n\tmapping(address => bool) public voters;\r\n\t\r\n\r\n\t// store candidates \r\n\t// fetch candidates (Adding a candidate changes the state of the contract and writes to the blockchain)\r\n\t// key of uint will correspond to candidate ID\r\n\tmapping(uint => Candidate) public candidates;\r\n\t// candidates count\r\n\tuint public candidatesCount;\r\n\r\n\t// voted event\r\n\tevent votedEvent (\r\n\t\tuint indexed _candidateId);\r\n\r\n\t// constructor\r\n\tfunction Election() public{\r\n\t\taddCandidate(\"Mark Rutte\");\r\n\t\taddCandidate(\"Donald Trump\");\r\n\t}\r\n\r\n\t// takes 1 arg (name of the candidate)\r\n\tfunction addCandidate (string _name) private{\r\n\t\tcandidatesCount ++;\r\n\t\t// reference candidate mapping and pass key of the ID of the candidate we want to create (candidatesCount)\r\n\t\tcandidates[candidatesCount] = Candidate(candidatesCount, _name, 0);\r\n\t}\r\n\r\n\tfunction vote (uint _candidateId) public {\r\n\t\t// check that account hasn't voted before\r\n\t\t// if require results in False, it will stop execution of code below\r\n\t\t// reference voters mapping and read account address as key\r\n\t\t// if voter has not voted before it will return as false, the ! causes the require to return True\r\n\t\trequire(!voters[msg.sender]);\r\n\r\n\t\t// check if candidate is valid\r\n\t\t// ensure that candidateId is greater than 0 and lower or equal to the maximum candidatesCount\r\n\t\trequire(_candidateId > 0 && _candidateId <= candidatesCount);\r\n\r\n\t\t// record that voter has voted\r\n\t\t// acces account that is voting and set value to true\r\n\t\tvoters[msg.sender] = true;\r\n\r\n\t\t//update candidate vote count\r\n\t\tcandidates[_candidateId].voteCount ++;\r\n\r\n\t\tvotedEvent(_candidateId);\r\n\t}\r\n}\r\n",
  "sourcePath": "D:\\election\\contracts\\Election.sol",
  "compiler": {
    "name": "solc",
    "version": "0.4.23+commit.124ca40d.Emscripten.clang"
  },
  "schemaVersion": "2.0.0",
  "updatedAt": "2018-05-17T08:15:07.337Z"
}